{
  "contractName": "LetterOwnership",
  "abi": [
    {
      "constant": true,
      "inputs": [
        {
          "name": "",
          "type": "uint256"
        }
      ],
      "name": "letterToOwner",
      "outputs": [
        {
          "name": "",
          "type": "address"
        }
      ],
      "payable": false,
      "stateMutability": "view",
      "type": "function"
    },
    {
      "constant": false,
      "inputs": [],
      "name": "withdraw",
      "outputs": [],
      "payable": false,
      "stateMutability": "nonpayable",
      "type": "function"
    },
    {
      "constant": true,
      "inputs": [],
      "name": "owner",
      "outputs": [
        {
          "name": "",
          "type": "address"
        }
      ],
      "payable": false,
      "stateMutability": "view",
      "type": "function"
    },
    {
      "constant": false,
      "inputs": [
        {
          "name": "_name",
          "type": "string"
        },
        {
          "name": "_studentId",
          "type": "uint256"
        },
        {
          "name": "_recommenderId",
          "type": "uint256"
        },
        {
          "name": "_schoolProgramId",
          "type": "uint256"
        },
        {
          "name": "_pdfFileHash",
          "type": "bytes32"
        },
        {
          "name": "_jsonFileHash",
          "type": "bytes32"
        }
      ],
      "name": "createLetter",
      "outputs": [],
      "payable": false,
      "stateMutability": "nonpayable",
      "type": "function"
    },
    {
      "constant": true,
      "inputs": [
        {
          "name": "",
          "type": "uint256"
        }
      ],
      "name": "letters",
      "outputs": [
        {
          "name": "name",
          "type": "string"
        },
        {
          "name": "studentId",
          "type": "uint256"
        },
        {
          "name": "recommenderId",
          "type": "uint256"
        },
        {
          "name": "schoolProgramId",
          "type": "uint256"
        },
        {
          "name": "pdfFileHash",
          "type": "bytes32"
        },
        {
          "name": "jsonFileHash",
          "type": "bytes32"
        }
      ],
      "payable": false,
      "stateMutability": "view",
      "type": "function"
    },
    {
      "constant": true,
      "inputs": [
        {
          "name": "_owner",
          "type": "address"
        }
      ],
      "name": "getLettersByOwner",
      "outputs": [
        {
          "name": "",
          "type": "uint256[]"
        }
      ],
      "payable": false,
      "stateMutability": "view",
      "type": "function"
    },
    {
      "constant": false,
      "inputs": [
        {
          "name": "_letterId",
          "type": "uint256"
        },
        {
          "name": "_newName",
          "type": "string"
        }
      ],
      "name": "changeName",
      "outputs": [],
      "payable": false,
      "stateMutability": "nonpayable",
      "type": "function"
    },
    {
      "constant": false,
      "inputs": [
        {
          "name": "newOwner",
          "type": "address"
        }
      ],
      "name": "transferOwnership",
      "outputs": [],
      "payable": false,
      "stateMutability": "nonpayable",
      "type": "function"
    },
    {
      "constant": false,
      "inputs": [
        {
          "name": "_letterId",
          "type": "uint256"
        },
        {
          "name": "_newProgramId",
          "type": "uint256"
        }
      ],
      "name": "changeSchoolProgram",
      "outputs": [],
      "payable": false,
      "stateMutability": "nonpayable",
      "type": "function"
    },
    {
      "anonymous": false,
      "inputs": [
        {
          "indexed": true,
          "name": "_from",
          "type": "address"
        },
        {
          "indexed": true,
          "name": "_to",
          "type": "address"
        },
        {
          "indexed": false,
          "name": "_tokenId",
          "type": "uint256"
        }
      ],
      "name": "Transfer",
      "type": "event"
    },
    {
      "anonymous": false,
      "inputs": [
        {
          "indexed": true,
          "name": "_owner",
          "type": "address"
        },
        {
          "indexed": true,
          "name": "_approved",
          "type": "address"
        },
        {
          "indexed": false,
          "name": "_tokenId",
          "type": "uint256"
        }
      ],
      "name": "Approval",
      "type": "event"
    },
    {
      "anonymous": false,
      "inputs": [
        {
          "indexed": false,
          "name": "letterId",
          "type": "uint256"
        },
        {
          "indexed": false,
          "name": "studentId",
          "type": "uint256"
        },
        {
          "indexed": false,
          "name": "recommenderId",
          "type": "uint256"
        },
        {
          "indexed": false,
          "name": "schoolProgramId",
          "type": "uint256"
        }
      ],
      "name": "NewLetter",
      "type": "event"
    },
    {
      "anonymous": false,
      "inputs": [
        {
          "indexed": true,
          "name": "previousOwner",
          "type": "address"
        },
        {
          "indexed": true,
          "name": "newOwner",
          "type": "address"
        }
      ],
      "name": "OwnershipTransferred",
      "type": "event"
    },
    {
      "constant": true,
      "inputs": [
        {
          "name": "_owner",
          "type": "address"
        }
      ],
      "name": "balanceOf",
      "outputs": [
        {
          "name": "_balance",
          "type": "uint256"
        }
      ],
      "payable": false,
      "stateMutability": "view",
      "type": "function"
    },
    {
      "constant": true,
      "inputs": [
        {
          "name": "_tokenId",
          "type": "uint256"
        }
      ],
      "name": "ownerOf",
      "outputs": [
        {
          "name": "_owner",
          "type": "address"
        }
      ],
      "payable": false,
      "stateMutability": "view",
      "type": "function"
    },
    {
      "constant": false,
      "inputs": [
        {
          "name": "_to",
          "type": "address"
        },
        {
          "name": "_tokenId",
          "type": "uint256"
        }
      ],
      "name": "transfer",
      "outputs": [],
      "payable": false,
      "stateMutability": "nonpayable",
      "type": "function"
    },
    {
      "constant": false,
      "inputs": [
        {
          "name": "_to",
          "type": "address"
        },
        {
          "name": "_tokenId",
          "type": "uint256"
        }
      ],
      "name": "approve",
      "outputs": [],
      "payable": false,
      "stateMutability": "nonpayable",
      "type": "function"
    },
    {
      "constant": false,
      "inputs": [
        {
          "name": "_tokenId",
          "type": "uint256"
        }
      ],
      "name": "takeOwnership",
      "outputs": [],
      "payable": false,
      "stateMutability": "nonpayable",
      "type": "function"
    }
  ],
  "bytecode": "0x606060405260008054600160a060020a033316600160a060020a0319909116179055610cde806100306000396000f3006060604052600436106100cf5763ffffffff7c0100000000000000000000000000000000000000000000000000000000600035041663095ea7b381146100d45780632a7c6dd7146100f85780633ccfd60b1461012a5780636352211e1461013d57806370a08231146101535780638da5cb5b1461018457806398263dd214610197578063a2a0e4c314610200578063a9059cbb146102b5578063b2e6ceeb146102d7578063b4f78cc1146102ed578063c39cbef11461035f578063f2fde38b14610381578063f3a0e53c146103a0575b600080fd5b34156100df57600080fd5b6100f6600160a060020a03600435166024356103b9565b005b341561010357600080fd5b61010e60043561045a565b604051600160a060020a03909116815260200160405180910390f35b341561013557600080fd5b6100f6610475565b341561014857600080fd5b61010e6004356104d0565b341561015e57600080fd5b610172600160a060020a03600435166104eb565b60405190815260200160405180910390f35b341561018f57600080fd5b61010e610506565b34156101a257600080fd5b6100f660046024813581810190830135806020601f8201819004810201604051908101604052818152929190602084018383808284375094965050843594602081013594506040810135935060608101359250608001359050610515565b341561020b57600080fd5b61021660043561052b565b6040516020810186905260408101859052606081018490526080810183905260a0810182905260c08082528190810188818151815260200191508051906020019080838360005b8381101561027557808201518382015260200161025d565b50505050905090810190601f1680156102a25780820380516001836020036101000a031916815260200191505b5097505050505050505060405180910390f35b34156102c057600080fd5b6100f6600160a060020a036004351660243561060d565b34156102e257600080fd5b6100f6600435610646565b34156102f857600080fd5b61030c600160a060020a0360043516610687565b60405160208082528190810183818151815260200191508051906020019060200280838360005b8381101561034b578082015183820152602001610333565b505050509050019250505060405180910390f35b341561036a57600080fd5b6100f6600480359060248035908101910135610735565b341561038c57600080fd5b6100f6600160a060020a0360043516610790565b34156103ab57600080fd5b6100f660043560243561082b565b600081815260026020526040902054819033600160a060020a039081169116146103e257600080fd5b60008281526004602052604090819020805473ffffffffffffffffffffffffffffffffffffffff1916600160a060020a038681169182179092559133909116907f8c5be1e5ebec7d5bd14f71427d1e84f3dd0314c0f7b2291e5b200ac8c7c3b9259085905190815260200160405180910390a3505050565b600260205260009081526040902054600160a060020a031681565b6000805433600160a060020a0390811691161461049157600080fd5b506000543090600160a060020a039081169082163180156108fc0290604051600060405180830381858888f1935050505015156104cd57600080fd5b50565b600090815260026020526040902054600160a060020a031690565b600160a060020a031660009081526003602052604090205490565b600054600160a060020a031681565b61052386868686868661087e565b505050505050565b600180548290811061053957fe5b9060005260206000209060060201600091509050806000018054600181600116156101000203166002900480601f0160208091040260200160405190810160405280929190818152602001828054600181600116156101000203166002900480156105e55780601f106105ba576101008083540402835291602001916105e5565b820191906000526020600020905b8154815290600101906020018083116105c857829003601f168201915b5050505050908060010154908060020154908060030154908060040154908060050154905086565b600081815260026020526040902054819033600160a060020a0390811691161461063657600080fd5b6106413384846109ce565b505050565b60008181526004602052604081205433600160a060020a0390811691161461066d57600080fd5b610676826104d0565b90506106838133846109ce565b5050565b61068f610ae1565b610697610ae1565b600160a060020a038316600090815260036020526040808220548291518059106106be5750595b9080825280602002602001820160405250925060009150600090505b60015481101561072c57600081815260026020526040902054600160a060020a0386811691161415610724578083838151811061071357fe5b602090810290910101526001909101905b6001016106da565b50909392505050565b600083815260026020526040902054839033600160a060020a0390811691161461075e57600080fd5b828260018681548110151561076f57fe5b600091825260209091206107899360069092020191610af3565b5050505050565b60005433600160a060020a039081169116146107ab57600080fd5b600160a060020a03811615156107c057600080fd5b600054600160a060020a0380831691167f8be0079c531659141344cd1fd0a4f28419497f9722a3daafe3b4186f6b6457e060405160405180910390a36000805473ffffffffffffffffffffffffffffffffffffffff1916600160a060020a0392909216919091179055565b600082815260026020526040902054829033600160a060020a0390811691161461085457600080fd5b8160018481548110151561086457fe5b906000526020600020906006020160030181905550505050565b600060018080548060010182816108959190610b71565b9160005260206000209060060201600060c060405190810160409081528c8252602082018c905281018a9052606081018990526080810188905260a081018790529190508151819080516108ed929160200190610b9d565b506020820151816001015560408201518160020155606082015181600301556080820151600482015560a0820151600590910155500360008181526002602090815260408083208054600160a060020a03331673ffffffffffffffffffffffffffffffffffffffff1990911681179091558352600390915290819020805460010190559091507f1a36f856f9b5cc55f031eec8df069daa5b7b11711f177701f50b08321a32b278908290889088908890518085815260200184815260200183815260200182815260200194505050505060405180910390a150505050505050565b600160a060020a0382166000908152600360205260409020546109f890600163ffffffff610ab916565b600160a060020a03808416600090815260036020526040808220939093553390911681522054610a2f90600163ffffffff610acf16565b600160a060020a0333811660009081526003602090815260408083209490945584825260029052829020805485831673ffffffffffffffffffffffffffffffffffffffff19909116811790915591908516907fddf252ad1be2c89b69c2b068fc378daa952ba7f163c4a11628f55a4df523b3ef9084905190815260200160405180910390a3505050565b600082820183811015610ac857fe5b9392505050565b600082821115610adb57fe5b50900390565b60206040519081016040526000815290565b828054600181600116156101000203166002900490600052602060002090601f016020900481019282601f10610b345782800160ff19823516178555610b61565b82800160010185558215610b61579182015b82811115610b61578235825591602001919060010190610b46565b50610b6d929150610c0b565b5090565b815481835581811511610641576006028160060283600052602060002091820191016106419190610c28565b828054600181600116156101000203166002900490600052602060002090601f016020900481019282601f10610bde57805160ff1916838001178555610b61565b82800160010185558215610b61579182015b82811115610b61578251825591602001919060010190610bf0565b610c2591905b80821115610b6d5760008155600101610c11565b90565b610c2591905b80821115610b6d576000610c428282610c6e565b506000600182018190556002820181905560038201819055600482018190556005820155600601610c2e565b50805460018160011615610100020316600290046000825580601f10610c9457506104cd565b601f0160209004906000526020600020908101906104cd9190610c0b5600a165627a7a72305820dccf162d5e851d7c80edca8af7e91d6ebdc4e3d58b107a76fef2b9b007483d9b0029",
  "source": "pragma solidity ^0.4.21;\n\nimport \"./letterhelper.sol\";\nimport \"./erc721.sol\";\nimport \"./safemath.sol\";\n\ncontract LetterOwnership is LetterHelper, ERC721 {\n\n  using SafeMath for uint256;\n\n  mapping (uint => address) letterApprovals;\n\n  function balanceOf(address _owner) public view returns (uint256 _balance) {\n    return ownerLetterCount[_owner];\n  }\n\n  function ownerOf(uint256 _tokenId) public view returns (address _owner) {\n    return letterToOwner[_tokenId];\n  }\n\n  function _transfer(address _from, address _to, uint256 _tokenId) private {\n    ownerLetterCount[_to] = ownerLetterCount[_to].add(1);\n    ownerLetterCount[msg.sender] = ownerLetterCount[msg.sender].sub(1);\n    letterToOwner[_tokenId] = _to;\n    emit Transfer(_from, _to, _tokenId);\n  }\n\n  function transfer(address _to, uint256 _tokenId) public onlyOwnerOf(_tokenId) {\n    _transfer(msg.sender, _to, _tokenId);\n  }\n\n  function approve(address _to, uint256 _tokenId) public onlyOwnerOf(_tokenId) {\n    letterApprovals[_tokenId] = _to;\n    emit Approval(msg.sender, _to, _tokenId);\n  }\n\n  function takeOwnership(uint256 _tokenId) public {\n    require(letterApprovals[_tokenId] == msg.sender);\n    address owner = ownerOf(_tokenId);\n    _transfer(owner, msg.sender, _tokenId);\n  }\n}\n",
  "sourcePath": "/Users/ying/Documents/cscie599bc/src/LetterContract/contracts/letterownership.sol",
  "compiler": {
    "name": "solc",
    "version": "0.4.21+commit.dfe3193c.Emscripten.clang"
  },
  "schemaVersion": "2.0.0",
  "updatedAt": "2018-03-18T21:56:04.518Z"
}