{
  "contractName": "LetterHelper",
  "abi": [
    {
      "constant": true,
      "inputs": [
        {
          "name": "",
          "type": "uint256"
        }
      ],
      "name": "letterToOwner",
      "outputs": [
        {
          "name": "",
          "type": "address"
        }
      ],
      "payable": false,
      "stateMutability": "view",
      "type": "function"
    },
    {
      "constant": true,
      "inputs": [],
      "name": "owner",
      "outputs": [
        {
          "name": "",
          "type": "address"
        }
      ],
      "payable": false,
      "stateMutability": "view",
      "type": "function"
    },
    {
      "constant": false,
      "inputs": [
        {
          "name": "_name",
          "type": "string"
        },
        {
          "name": "_studentId",
          "type": "uint256"
        },
        {
          "name": "_recommenderId",
          "type": "uint256"
        },
        {
          "name": "_schoolProgramId",
          "type": "uint256"
        },
        {
          "name": "_pdfFileHash",
          "type": "bytes32"
        },
        {
          "name": "_jsonFileHash",
          "type": "bytes32"
        }
      ],
      "name": "createLetter",
      "outputs": [],
      "payable": false,
      "stateMutability": "nonpayable",
      "type": "function"
    },
    {
      "constant": true,
      "inputs": [
        {
          "name": "",
          "type": "uint256"
        }
      ],
      "name": "letters",
      "outputs": [
        {
          "name": "name",
          "type": "string"
        },
        {
          "name": "studentId",
          "type": "uint256"
        },
        {
          "name": "recommenderId",
          "type": "uint256"
        },
        {
          "name": "schoolProgramId",
          "type": "uint256"
        },
        {
          "name": "pdfFileHash",
          "type": "bytes32"
        },
        {
          "name": "jsonFileHash",
          "type": "bytes32"
        }
      ],
      "payable": false,
      "stateMutability": "view",
      "type": "function"
    },
    {
      "constant": false,
      "inputs": [
        {
          "name": "newOwner",
          "type": "address"
        }
      ],
      "name": "transferOwnership",
      "outputs": [],
      "payable": false,
      "stateMutability": "nonpayable",
      "type": "function"
    },
    {
      "anonymous": false,
      "inputs": [
        {
          "indexed": false,
          "name": "letterId",
          "type": "uint256"
        },
        {
          "indexed": false,
          "name": "studentId",
          "type": "uint256"
        },
        {
          "indexed": false,
          "name": "recommenderId",
          "type": "uint256"
        },
        {
          "indexed": false,
          "name": "schoolProgramId",
          "type": "uint256"
        }
      ],
      "name": "NewLetter",
      "type": "event"
    },
    {
      "anonymous": false,
      "inputs": [
        {
          "indexed": true,
          "name": "previousOwner",
          "type": "address"
        },
        {
          "indexed": true,
          "name": "newOwner",
          "type": "address"
        }
      ],
      "name": "OwnershipTransferred",
      "type": "event"
    },
    {
      "constant": false,
      "inputs": [],
      "name": "withdraw",
      "outputs": [],
      "payable": false,
      "stateMutability": "nonpayable",
      "type": "function"
    },
    {
      "constant": false,
      "inputs": [
        {
          "name": "_letterId",
          "type": "uint256"
        },
        {
          "name": "_newName",
          "type": "string"
        }
      ],
      "name": "changeName",
      "outputs": [],
      "payable": false,
      "stateMutability": "nonpayable",
      "type": "function"
    },
    {
      "constant": false,
      "inputs": [
        {
          "name": "_letterId",
          "type": "uint256"
        },
        {
          "name": "_newProgramId",
          "type": "uint256"
        }
      ],
      "name": "changeSchoolProgram",
      "outputs": [],
      "payable": false,
      "stateMutability": "nonpayable",
      "type": "function"
    },
    {
      "constant": true,
      "inputs": [
        {
          "name": "_owner",
          "type": "address"
        }
      ],
      "name": "getLettersByOwner",
      "outputs": [
        {
          "name": "",
          "type": "uint256[]"
        }
      ],
      "payable": false,
      "stateMutability": "view",
      "type": "function"
    }
  ],
  "bytecode": "0x606060405260008054600160a060020a033316600160a060020a03199091161790556109a7806100306000396000f3006060604052600436106100985763ffffffff7c01000000000000000000000000000000000000000000000000000000006000350416632a7c6dd7811461009d5780633ccfd60b146100cf5780638da5cb5b146100e457806398263dd2146100f7578063a2a0e4c314610160578063b4f78cc114610215578063c39cbef114610287578063f2fde38b146102a9578063f3a0e53c146102c8575b600080fd5b34156100a857600080fd5b6100b36004356102e1565b604051600160a060020a03909116815260200160405180910390f35b34156100da57600080fd5b6100e26102fc565b005b34156100ef57600080fd5b6100b3610357565b341561010257600080fd5b6100e260046024813581810190830135806020601f8201819004810201604051908101604052818152929190602084018383808284375094965050843594602081013594506040810135935060608101359250608001359050610366565b341561016b57600080fd5b61017660043561037c565b6040516020810186905260408101859052606081018490526080810183905260a0810182905260c08082528190810188818151815260200191508051906020019080838360005b838110156101d55780820151838201526020016101bd565b50505050905090810190601f1680156102025780820380516001836020036101000a031916815260200191505b5097505050505050505060405180910390f35b341561022057600080fd5b610234600160a060020a036004351661045e565b60405160208082528190810183818151815260200191508051906020019060200280838360005b8381101561027357808201518382015260200161025b565b505050509050019250505060405180910390f35b341561029257600080fd5b6100e260048035906024803590810191013561050c565b34156102b457600080fd5b6100e2600160a060020a0360043516610567565b34156102d357600080fd5b6100e2600435602435610602565b600260205260009081526040902054600160a060020a031681565b6000805433600160a060020a0390811691161461031857600080fd5b506000543090600160a060020a039081169082163180156108fc0290604051600060405180830381858888f19350505050151561035457600080fd5b50565b600054600160a060020a031681565b610374868686868686610655565b505050505050565b600180548290811061038a57fe5b9060005260206000209060060201600091509050806000018054600181600116156101000203166002900480601f0160208091040260200160405190810160405280929190818152602001828054600181600116156101000203166002900480156104365780601f1061040b57610100808354040283529160200191610436565b820191906000526020600020905b81548152906001019060200180831161041957829003601f168201915b5050505050908060010154908060020154908060030154908060040154908060050154905086565b6104666107a5565b61046e6107a5565b600160a060020a038316600090815260036020526040808220548291518059106104955750595b9080825280602002602001820160405250925060009150600090505b60015481101561050357600081815260026020526040902054600160a060020a03868116911614156104fb57808383815181106104ea57fe5b602090810290910101526001909101905b6001016104b1565b50909392505050565b600083815260026020526040902054839033600160a060020a0390811691161461053557600080fd5b828260018681548110151561054657fe5b6000918252602090912061056093600690920201916107b7565b5050505050565b60005433600160a060020a0390811691161461058257600080fd5b600160a060020a038116151561059757600080fd5b600054600160a060020a0380831691167f8be0079c531659141344cd1fd0a4f28419497f9722a3daafe3b4186f6b6457e060405160405180910390a36000805473ffffffffffffffffffffffffffffffffffffffff1916600160a060020a0392909216919091179055565b600082815260026020526040902054829033600160a060020a0390811691161461062b57600080fd5b8160018481548110151561063b57fe5b906000526020600020906006020160030181905550505050565b6000600180805480600101828161066c9190610835565b9160005260206000209060060201600060c060405190810160409081528c8252602082018c905281018a9052606081018990526080810188905260a081018790529190508151819080516106c4929160200190610866565b506020820151816001015560408201518160020155606082015181600301556080820151600482015560a0820151600590910155500360008181526002602090815260408083208054600160a060020a03331673ffffffffffffffffffffffffffffffffffffffff1990911681179091558352600390915290819020805460010190559091507f1a36f856f9b5cc55f031eec8df069daa5b7b11711f177701f50b08321a32b278908290889088908890518085815260200184815260200183815260200182815260200194505050505060405180910390a150505050505050565b60206040519081016040526000815290565b828054600181600116156101000203166002900490600052602060002090601f016020900481019282601f106107f85782800160ff19823516178555610825565b82800160010185558215610825579182015b8281111561082557823582559160200191906001019061080a565b506108319291506108d4565b5090565b8154818355818115116108615760060281600602836000526020600020918201910161086191906108f1565b505050565b828054600181600116156101000203166002900490600052602060002090601f016020900481019282601f106108a757805160ff1916838001178555610825565b82800160010185558215610825579182015b828111156108255782518255916020019190600101906108b9565b6108ee91905b8082111561083157600081556001016108da565b90565b6108ee91905b8082111561083157600061090b8282610937565b5060006001820181905560028201819055600382018190556004820181905560058201556006016108f7565b50805460018160011615610100020316600290046000825580601f1061095d5750610354565b601f01602090049060005260206000209081019061035491906108d45600a165627a7a7230582047d98e84da7025dca76d1b3c04b4e469ae1eb34cbc3f236a7fbf72a4576f58f40029",
  "source": "pragma solidity ^0.4.21;\r\n\r\nimport \"./letterfactory.sol\";\r\n\r\ncontract LetterHelper is LetterFactory {\r\n\r\n  modifier onlyOwnerOf(uint _letterId) {\r\n    require(msg.sender == letterToOwner[_letterId]);\r\n    _;\r\n  }\r\n\r\n  function withdraw() external onlyOwner {\r\n    address contractAddress = this;\r\n    owner.transfer(contractAddress.balance);\r\n  }\r\n\r\n  function changeName(uint _letterId, string _newName) \r\n                      external onlyOwnerOf(_letterId) {\r\n    letters[_letterId].name = _newName;\r\n  }\r\n\r\n  function changeSchoolProgram(uint _letterId, uint _newProgramId) \r\n                      external onlyOwnerOf(_letterId) {\r\n    letters[_letterId].schoolProgramId = _newProgramId;\r\n  }\r\n\r\n  //Get all the letter's ids owned by an owner, function is \"view\" to avoid\r\n  //paying the gas. \r\n  function getLettersByOwner(address _owner) external view returns(uint[]) {\r\n    uint[] memory result = new uint[](ownerLetterCount[_owner]);\r\n    uint counter = 0;\r\n    for (uint i = 0; i < letters.length; i++) {\r\n      if (letterToOwner[i] == _owner) {\r\n        result[counter] = i;\r\n        counter++;\r\n      }\r\n    }\r\n    return result;\r\n  }\r\n\r\n}\r\n",
  "sourcePath": "C:\\Users\\v1a\\blockchain\\cscie599bc\\src\\LetterContract\\contracts\\letterhelper.sol",
  "compiler": {
    "name": "solc",
    "version": "0.4.21+commit.dfe3193c.Emscripten.clang"
  },
  "schemaVersion": "2.0.0",
  "updatedAt": "2018-03-18T23:19:14.942Z"
}