{
  "contractName": "LetterFactory",
  "abi": [
    {
      "constant": true,
      "inputs": [
        {
          "name": "",
          "type": "uint256"
        }
      ],
      "name": "letterToOwner",
      "outputs": [
        {
          "name": "",
          "type": "address"
        }
      ],
      "payable": false,
      "stateMutability": "view",
      "type": "function"
    },
    {
      "constant": true,
      "inputs": [],
      "name": "owner",
      "outputs": [
        {
          "name": "",
          "type": "address"
        }
      ],
      "payable": false,
      "stateMutability": "view",
      "type": "function"
    },
    {
      "constant": true,
      "inputs": [
        {
          "name": "",
          "type": "uint256"
        }
      ],
      "name": "letters",
      "outputs": [
        {
          "name": "name",
          "type": "string"
        },
        {
          "name": "studentId",
          "type": "uint256"
        },
        {
          "name": "recommenderId",
          "type": "uint256"
        },
        {
          "name": "schoolProgramId",
          "type": "uint256"
        },
        {
          "name": "pdfFileHash",
          "type": "bytes32"
        },
        {
          "name": "jsonFileHash",
          "type": "bytes32"
        }
      ],
      "payable": false,
      "stateMutability": "view",
      "type": "function"
    },
    {
      "constant": false,
      "inputs": [
        {
          "name": "newOwner",
          "type": "address"
        }
      ],
      "name": "transferOwnership",
      "outputs": [],
      "payable": false,
      "stateMutability": "nonpayable",
      "type": "function"
    },
    {
      "anonymous": false,
      "inputs": [
        {
          "indexed": false,
          "name": "letterId",
          "type": "uint256"
        },
        {
          "indexed": false,
          "name": "studentId",
          "type": "uint256"
        },
        {
          "indexed": false,
          "name": "recommenderId",
          "type": "uint256"
        },
        {
          "indexed": false,
          "name": "schoolProgramId",
          "type": "uint256"
        }
      ],
      "name": "NewLetter",
      "type": "event"
    },
    {
      "anonymous": false,
      "inputs": [
        {
          "indexed": true,
          "name": "previousOwner",
          "type": "address"
        },
        {
          "indexed": true,
          "name": "newOwner",
          "type": "address"
        }
      ],
      "name": "OwnershipTransferred",
      "type": "event"
    },
    {
      "constant": false,
      "inputs": [
        {
          "name": "_name",
          "type": "string"
        },
        {
          "name": "_studentId",
          "type": "uint256"
        },
        {
          "name": "_recommenderId",
          "type": "uint256"
        },
        {
          "name": "_schoolProgramId",
          "type": "uint256"
        },
        {
          "name": "_pdfFileHash",
          "type": "bytes32"
        },
        {
          "name": "_jsonFileHash",
          "type": "bytes32"
        }
      ],
      "name": "createLetter",
      "outputs": [],
      "payable": false,
      "stateMutability": "nonpayable",
      "type": "function"
    }
  ],
  "bytecode": "0x606060405260008054600160a060020a033316600160a060020a0319909116179055610687806100306000396000f30060606040526004361061006c5763ffffffff7c01000000000000000000000000000000000000000000000000000000006000350416632a7c6dd781146100715780638da5cb5b146100a357806398263dd2146100b6578063a2a0e4c314610121578063f2fde38b146101d6575b600080fd5b341561007c57600080fd5b6100876004356101f5565b604051600160a060020a03909116815260200160405180910390f35b34156100ae57600080fd5b610087610210565b34156100c157600080fd5b61011f60046024813581810190830135806020601f820181900481020160405190810160405281815292919060208401838380828437509496505084359460208101359450604081013593506060810135925060800135905061021f565b005b341561012c57600080fd5b610137600435610235565b6040516020810186905260408101859052606081018490526080810183905260a0810182905260c08082528190810188818151815260200191508051906020019080838360005b8381101561019657808201518382015260200161017e565b50505050905090810190601f1680156101c35780820380516001836020036101000a031916815260200191505b5097505050505050505060405180910390f35b34156101e157600080fd5b61011f600160a060020a0360043516610317565b600260205260009081526040902054600160a060020a031681565b600054600160a060020a031681565b61022d8686868686866103b2565b505050505050565b600180548290811061024357fe5b9060005260206000209060060201600091509050806000018054600181600116156101000203166002900480601f0160208091040260200160405190810160405280929190818152602001828054600181600116156101000203166002900480156102ef5780601f106102c4576101008083540402835291602001916102ef565b820191906000526020600020905b8154815290600101906020018083116102d257829003601f168201915b5050505050908060010154908060020154908060030154908060040154908060050154905086565b60005433600160a060020a0390811691161461033257600080fd5b600160a060020a038116151561034757600080fd5b600054600160a060020a0380831691167f8be0079c531659141344cd1fd0a4f28419497f9722a3daafe3b4186f6b6457e060405160405180910390a36000805473ffffffffffffffffffffffffffffffffffffffff1916600160a060020a0392909216919091179055565b600060018080548060010182816103c99190610502565b9160005260206000209060060201600060c060405190810160409081528c8252602082018c905281018a9052606081018990526080810188905260a08101879052919050815181908051610421929160200190610533565b506020820151816001015560408201518160020155606082015181600301556080820151600482015560a0820151600590910155500360008181526002602090815260408083208054600160a060020a03331673ffffffffffffffffffffffffffffffffffffffff1990911681179091558352600390915290819020805460010190559091507f1a36f856f9b5cc55f031eec8df069daa5b7b11711f177701f50b08321a32b278908290889088908890518085815260200184815260200183815260200182815260200194505050505060405180910390a150505050505050565b81548183558181151161052e5760060281600602836000526020600020918201910161052e91906105b1565b505050565b828054600181600116156101000203166002900490600052602060002090601f016020900481019282601f1061057457805160ff19168380011785556105a1565b828001600101855582156105a1579182015b828111156105a1578251825591602001919060010190610586565b506105ad9291506105fa565b5090565b6105f791905b808211156105ad5760006105cb8282610614565b5060006001820181905560028201819055600382018190556004820181905560058201556006016105b7565b90565b6105f791905b808211156105ad5760008155600101610600565b50805460018160011615610100020316600290046000825580601f1061063a5750610658565b601f01602090049060005260206000209081019061065891906105fa565b505600a165627a7a723058209a9538b3d6b02eec39a043af232d747b4e10a923df3c01a43be3937ac58a37490029",
  "source": "pragma solidity ^0.4.21;\n\nimport \"./ownable.sol\";\nimport \"./safemath.sol\";\n\ncontract LetterFactory is Ownable {\n\n  using SafeMath for uint256;\n\n  event NewLetter(uint letterId, uint studentId, \n                  uint recommenderId, uint schoolProgramId);\n\n  struct Letter {\n    string name;\n    uint studentId;   //maybe a uportId or mongodbId?\n    uint recommenderId;   //maybe a uportId or mongodbId?\n    uint schoolProgramId;   //maybe a uportId or mongodbId?\n    bytes32 pdfFileHash;   //Pdf file ipfs hash\n    bytes32 jsonFileHash;  //File of the mandatory questions ipfs hash\n  }\n\n  Letter[] public letters;\n\n  //To retrieve the owner address from a letter\n  mapping (uint => address) public letterToOwner;  \n  //To retrive the number of letters an owner holds\n  mapping (address => uint) ownerLetterCount;  \n\n  function _createLetter(string _name, \n                        uint _studentId, \n                        uint _recommenderId,\n                        uint _schoolProgramId, \n                        bytes32 _pdfFileHash,  \n                        bytes32 _jsonFileHash) internal \n  {\n    uint letterId = letters.push(Letter(_name, _studentId, _recommenderId, _schoolProgramId, _pdfFileHash, _jsonFileHash)) - 1;\n    letterToOwner[letterId] = msg.sender;\n    ownerLetterCount[msg.sender]++;\n    emit NewLetter(letterId, _studentId, _recommenderId, _schoolProgramId);\n  }\n\n  function createLetter(string _name, \n                        uint _studentId, \n                        uint _recommenderId,\n                        uint _schoolProgramId, \n                        bytes32 _pdfFileHash,  \n                        bytes32 _jsonFileHash) public \n  {\n    _createLetter(_name, _studentId, _recommenderId, _schoolProgramId,\n                  _pdfFileHash, _jsonFileHash);\n  }\n\n}\n",
  "sourcePath": "/Users/ying/Documents/cscie599bc/src/LetterContract/contracts/letterfactory.sol",
  "compiler": {
    "name": "solc",
    "version": "0.4.21+commit.dfe3193c.Emscripten.clang"
  },
  "schemaVersion": "2.0.0",
  "updatedAt": "2018-03-18T21:56:04.515Z"
}